:100000000C9462000C948A000C948A000C948A0070
:100010000C948A000C948A000C948A000C948A0038
:100020000C948A000C948A000C948A000C948A0028
:100030000C948A000C948A000C948A000C948A0018
:100040000C94D1020C948A000C948A000C948A00BF
:100050000C948A000C948A000C948A000C948A00F8
:100060000C948A000C948A000000000024002700F1
:100070002A0000000000250028002B0000000000DE
:1000800023002600290004040404040404040202DA
:100090000202020203030303030301020408102007
:1000A0004080010204081020010204081020000012
:1000B0000008000201000003040700000000000027
:1000C0000000B30311241FBECFEFD8E0DEBFCDBFC9
:1000D00011E0A0E0B1E0E4EBF7E002C005900D9282
:1000E000AC35B107D9F721E0ACE5B1E001C01D9214
:1000F000AD37B207E1F710E0C2E6D0E004C02197C7
:10010000FE010E94D203C136D107C9F70E941B032A
:100110000C94D8030C940000AF92BF92CF92DF9260
:10012000EF92FF920F931F93CF93DF936C017B01AC
:100130008B01040F151FEB015E01AE18BF08C0173D
:10014000D10759F06991D601ED91FC910190F081B0
:10015000E02DC6010995892B79F7C501DF91CF9173
:100160001F910F91FF90EF90DF90CF90BF90AF90D5
:100170000895833081F028F4813099F08230A9F01D
:1001800008958730A9F08830C9F08430B1F48091A7
:1001900080008F7D03C0809180008F7780938000E6
:1001A000089584B58F7784BD089584B58F7DFBCF86
:1001B0008091B0008F778093B00008958091B00057
:1001C0008F7DF9CFCF93DF93282F30E0F901E255EF
:1001D000FF4F8491F901E656FF4FD491F901EA5798
:1001E000FF4FC491CC23A1F081110E94B900EC2FE4
:1001F000F0E0EE0FFF1FE458FF4FA591B491EC9192
:10020000ED2381E090E009F480E0DF91CF91089543
:1002100080E090E0FACF1F93CF93DF93282F30E058
:10022000F901E255FF4F8491F901E656FF4FD49151
:10023000F901EA57FF4FC491CC23A9F0162F811181
:100240000E94B900EC2FF0E0EE0FFF1FEE58FF4FB9
:10025000A591B4918FB7F894EC91111108C0D09585
:10026000DE23DC938FBFDF91CF911F910895DE2BAA
:10027000F8CFCF93DF9390E0FC01E656FF4F249137
:100280008A579F4FFC0184918823D1F090E0880F1A
:10029000991FFC01E859FF4FA591B491FC01EE585C
:1002A000FF4FC591D49161110EC09FB7F8948C9106
:1002B000E22FE0958E238C932881E223E8839FBF71
:1002C000DF91CF9108958FB7F894EC91E22BEC93E6
:1002D0008FBFF6CF089590E080E00895FC01019073
:1002E0000020E9F73197AF01481B590BBC0185E6A7
:1002F00091E00C948C00CF93DF93EC0160E08E8151
:100300000E940B0161E08E810E940B0160E08E81F2
:100310000E940B018BE891E00197F1F7DF91CF91FB
:100320000895CF92DF92EF92FF920F931F93CF9396
:10033000DF936C017C0187E0E80EF11CD0E0C0E0A7
:10034000062F10E0B8010C2E02C0759567950A942F
:10035000E2F76170F70181917F010E940B01219604
:10036000C430D10579F7C601DF91CF911F910F916C
:10037000FF90EF90DF90CF900C947B01CF92DF92B3
:10038000EF92FF920F931F93CF93DF93EC01F62E22
:10039000642F8C810E940B018D818F3F19F060E0EA
:1003A0000E940B010F2D10E08F8584FF25C06E0188
:1003B00087E0C80ED11CF12CE12CB8010E2C02C034
:1003C000759567950A94E2F76170F60181916F0166
:1003D0000E940B01FFEFEF1AFF0A88E0E816F10414
:1003E00061F7CE01DF91CF911F910F91FF90EF90B8
:1003F000DF90CF900C947B01B80184E075956795F0
:100400008A95E1F7CE010E9491016F2DCE01DF9117
:10041000CF911F910F91FF90EF90DF90CF900C94B0
:10042000910140E0682F85E691E00C94BE01CF93E6
:10043000DF93613029F0909174019860909374017A
:10044000609378011092790190E490937A018093FF
:100450007B01805C80937C0161E0809169010E9456
:10046000390180916A018F3F19F061E00E943901E2
:1004700061E080916B010E943901C5E6D1E09E01E7
:10048000255631408091740184FD0BC084E090E0DA
:1004900021962817390744F461E08E810E943901C2
:1004A000EECF88E090E0F4CF8BE39DE00197F1F789
:1004B00060E0809169010E940B0160E080916B0116
:1004C0000E940B0180916A018F3F19F060E00E9449
:1004D0000B018091740184FD39C063E085E691E0F1
:1004E0000E949101CBE4D6E4CE010197F1F763E0DD
:1004F00085E691E00E9491012197F1F763E085E69E
:1005000091E00E94910183E592E00197F1F762E0AA
:1005100085E691E00E9491018091740180620E94C1
:10052000110284E0809375018CE00E94110281E049
:100530000E9411028BE39FE10197F1F782E0809323
:10054000760186E0DF91CF910C94110280620E94C7
:1005500011028BE496E40197F1F7809174018062B7
:100560000E94110283E592E00197F1F780917401F6
:1005700080620E941102D0CF90917801691710F02B
:100580006FEF690FE62FF0E0EB59FE4F9489890F6A
:1005900080680C94110241E00E94BE0181E090E06D
:1005A00008951F920F920FB60F9211242F933F932D
:1005B0008F939F93AF93BF9380916101909162015C
:1005C000A0916301B09164013091600123E0230F99
:1005D0002D3758F50196A11DB11D20936001809320
:1005E000610190936201A0936301B09364018091D3
:1005F0005C0190915D01A0915E01B0915F01019657
:10060000A11DB11D80935C0190935D01A0935E01DB
:10061000B0935F01BF91AF919F918F913F912F91C7
:100620000F900FBE0F901F90189526E8230F02968B
:10063000A11DB11DD2CF789484B5826084BD84B5EC
:10064000816084BD85B5826085BD85B5816085BDCD
:1006500080916E00816080936E0010928100809185
:10066000810082608093810080918100816080930D
:100670008100809180008160809380008091B10032
:1006800084608093B1008091B00081608093B0005D
:1006900080917A00846080937A0080917A008260F1
:1006A00080937A0080917A00816080937A008091B3
:1006B0007A00806880937A001092C10064E084E13F
:1006C0000E94170261E086E00E94390160E080E04C
:1006D0000E94BC028CE091E00E946E0161E080E02B
:1006E0000E94BC028CE191E00E946E0162E080E019
:1006F0000E94BC0289E291E00E946E0163E080E00A
:100700000E94BC028CE391E00E946E0160E087E0F1
:100710000E943901C0E0D0E087E00E94E20001972A
:1007200061F460E08FE00E94BC0282E591E00E94EB
:100730006E0160E086E00E940B0187E00E94E2000B
:10074000892B61F460E08FE00E94BC0287E591E0B4
:100750000E946E0161E086E00E940B012097E1F2A9
:100760000E940000D9CFE5E6F1E01382128284E016
:1007700091E0918380838DE084838FEF85838CE08B
:1007800086838BE087838AE0808789E0818788E0A1
:1007900082871386148615861686178661E080E1A7
:1007A0000C941702EE0FFF1F0590F491E02D0994B1
:0407B000F894FFCFEB
:1007B40000000000CB028C006B016A0147617320CA
:1007C40044657465637461646F203A0020202020BE
:1007D40020202053454E4149002020456C65747209
:1007E4006F456C6574726F6E69636100436F6E640C
:1007F40065204A6F736520646520417A6576656477
:0C0804006F002053696D00204E616F00F2
:00000001FF
